:0300000002022ACF
:0C022A00787FE4F6D8FD75810A020271AD
:10013A00FFFFFFFFFFFFFFFFFFFEFFFFFFFFFFFEC7
:10014A00FFFCFEFEFEFEFEFCFFF8FCFCFCFCFCF8DD
:10015A00FFF0F9F9F9F9F9F0FFE1F3F3F3F3F3E159
:10016A00FFC3E7E7E7E7E7C3FF87CECECECFCF8768
:10017A00FF0E9C9C9C9E9F0FFF1C3838383C3E1FEC
:10018A00FF39707070787C3EFF73E0E0E0F0F87C35
:10019A00FFE6C0C0C0E0F0F9FFCC808080C0E1F388
:1001AA00FF9900000081C3E7FF330101010387CFF4
:1001BA00FF67030303070F9FFFCE0606060E1E3FC7
:1001CA00FF9C0C0C0C1C3C7EFF391919193978FC60
:1001DA00FF7333333373F0F8FFE6666666E6E0F0E2
:1001EA00FFCCCCCCCCCCC0E1FF999999999981C329
:1001FA00FF33333333330387FF6767676767070F55
:10020A00FFCFCFCFCFCF0F1FFF9F9F9F9F9F1F3F34
:10021A00FF3F3F3F3F3F3F7FFF7F7F7F7F7F7FFFE4
:0902CB00010800010900010A000C
:1002B600D2AFC294C293758901758CFC758A67D2D8
:0502C600A9D28C80FEAE
:03000B0002000EE2
:0F000E00C0E0C0F0C083C082C0D075D000C00079
:10001D00758CFC758A677580FFE508B40800400390
:10002D0002010E900037F828287302004F02006776
:10003D0002007F0200960200AD0200C40200DB0246
:10004D0000F2C292C291C2900508E50A75F008A4AB
:10005D00243AF582E43401020108C292C291D29091
:10006D000508E50A75F008A4243BF582E434010285
:10007D000108C292D291C2900508E50A75F008A454
:10008D00243CF582E434018072C292D291D2900563
:10009D0008E50A75F008A4243DF582E43401805B7F
:1000AD00D292C291C2900508E50A75F008A4243ECB
:1000BD00F582E434018044D292C291D2900508E5D4
:1000CD000A75F008A4243FF582E43401802DD29204
:1000DD00D291C2900508E50A75F008A42440F58276
:1000ED00E434018016D292D291D290750800E50ABF
:1000FD0075F008A42441F582E43401F583E493F509
:10010D00800509C3E50994FA74809480401275093D
:10011D0000050AE50A941E748094804003750A0058
:0D012D00D000D0D0D082D083D0F0D0E0320E
:100236000202B6E493A3F8E493A34003F68001F226
:1002460008DFF48029E493A3F85407240CC8C333C9
:10025600C4540F4420C8834004F456800146F6DF98
:10026600E4800B01020408102040809002CBE47E5B
:10027600019360BCA3FF543F30E509541FFEE4938D
:10028600A360010ECF54C025E060A840B8E493A354
:10029600FAE493A3F8E493A3C8C582C8CAC583CA7F
:1002A600F0A3C8C582C8CAC583CADFE9DEE780BE37
:0102D4000029
:00000001FF
