:0300000002038870
:0C038800787FE4F6D8FD7581550203CFA4
:10056D00C0F9A4B0999282F880908883C6A1868E36
:10057D00313233263435362537383928301B0D279F
:1004F4000632FFFFFFFFFFFF103801010101010178
:1005040001010101010101010101040800000000D1
:10051400040C00000000101001010101010101019F
:1005240001010101010101010120001021FFFFFF70
:10053400FFFFFFFFFFFFFFFFFFFFFFFFFF01310092
:10058D00D2AFC294D293758901758CFC758A67D2EE
:0F059D00A9D28C90056DE493F53212041480FB03
:0802EB008F4E8E4D8D4C8C4BA3
:1002F300E4F54FAF4FEF3395E0FEC3EF9406EE64A2
:100303008094805037E47B0AFAF9F8AF4EAE4DADD6
:100313004CAC4B120099AF037450254FF8A607AFAE
:100323004EAE4DAD4CAC4BE47B0AFAF9F812009992
:100333008F4E8E4D8D4C8C4B054F80B7754F05AF4F
:100343004FEF3395E0FEC3EF9401EE648094804059
:100353001174502FF8E6700A74322FF876FF154F98
:1003630080DDAF4FEF3395E0C36480948040157414
:10037300502FF8E690056D93FF7432254FF8A607CA
:04038300154F80DEB4
:010387002253
:02020F008F4A14
:100211007E00C3EF943074809480404AD3EF9439C8
:10022100748094805040E47F0AFDFCAB0FAA0EA9B4
:100231000DA80C12000EA804A905AA06AB07E54AF1
:1002410024D0FFE434FFFE3395E0FDFCEB2FF50FE6
:10025100EA3EF50EE93DF50DE83CF50CAF0FAE0EAB
:10026100AD0DFC0202E7E54A6426702BE50B250F74
:10027100F50BE50A350EF50AE509350DF509E50831
:10028100350CF508E4F50FF50EF50DF50CAF0BAED9
:100291000AAD09AC08804FE54A640D702BE50B25CA
:1002A1000FF50BE50A350EF50AE509350DF509E5FA
:1002B10008350CF508E4F50FF50EF50DF50CAF0B4F
:1002C100AE0AAD09AC08801EE54A641B701BF50F30
:1002D100F50EF50DF50CF50BF50AF509F508AF0F5F
:0902E100AE0EAD0DAC0C1202EBE7
:0102EA0022F1
:10041400E4F548C3E5489404748094805070E4F58E
:1004240049C3E549940474809480505EE54825E00E
:1004340025E024382549F8E6FFE54825E025E024B1
:10044400102549F8E6FE6F603DEE6020E54825E0A2
:1004540025E0247DF582E43405F583E5822549F51C
:1004640082E43583F583E493FF12020FE54825E027
:1004740025E024382549F8E6FFE54825E025E02471
:0E048400102549F8A607054980970548808590
:010492002247
:10012B00E52014600E14600F1460102403700EC2CF
:10013B00A3800AC2A28006C2A18002C2A0E520252C
:10014B00E025E02421F8E625E0FFA2A4E4334FFFED
:10015B00E52025E025E02421F8A607E52025E0256C
:10016B00E02422F8E625E0FFA2A5E4334FFFE520CB
:10017B0025E025E02422F8A607E52025E025E0244C
:10018B0023F8E625E0FFA2A6E4334FFFE52025E0A8
:10019B0025E02423F8A607E52025E025E02424F814
:1001AB00E625E0FFA2A7E4334FFFE52025E025E09D
:1001BB002424F8A607E4FFEFC394047480948050C2
:1001CB0035E52025E025E024212FF8E6540FFD7CB2
:1001DB0000700EE52025E025E024382FF8E4F680AA
:1001EB0012ED640F4C700CE52025E025E024382F30
:1001FB00F876010F80C10520532003D2A3D2A2D2DF
:03020B00A1D2A0DD
:01020E0022CD
:100493007580FFE53114601C14602514602E146010
:1004A3003714604024057048C292C291C29005314E
:1004B30085328022C292C291D29005318533802247
:1004C300C292D291C290053185348022C292D291D8
:1004D300D290053185358022D292C291C2900531E6
:1004E30085368022D292C291D290E4F5318537804D
:0104F30022E6
:03000B00020545A6
:10054500C0E0C0D075D000C000C004C005C00775AC
:100555008CFC758A6712049312012BD007D005D045
:0805650004D000D0D0D0E03238
:1003940002058DE493A3F8E493A34003F68001F2ED
:1003A40008DFF48029E493A3F85407240CC8C3336A
:1003B400C4540F4420C8834004F456800146F6DF39
:1003C400E4800B01020408102040809004F4E47ED1
:1003D400019360BCA3FF543F30E509541FFEE4932E
:1003E400A360010ECF54C025E060A840B8E493A3F5
:1003F400FAE493A3F8E493A3C8C582C8CAC583CA20
:10040400F0A3C8C582C8CAC583CADFE9DEE780BED7
:0105440000B6
:10000E00E88FF0A4CC8BF0A42CFCE98EF0A42CFC91
:10001E008AF0EDA42CFCEA8EF0A4CDA8F08BF0A40F
:10002E002DCC3825F0FDE98FF0A42CCD35F0FCEB6E
:10003E008EF0A4FEA9F0EB8FF0A4CFC5F02ECD3933
:0F004E00FEE43CFCEAA42DCE35F0FDE43CFC22A0
:10005D0075F008758200EF2FFFEE33FECD33CDCC5A
:10006D0033CCC58233C5829BED9AEC99E5829840DD
:10007D000CF582EE9BFEED9AFDEC99FC0FD5F0D6BA
:10008D00E4CEFBE4CDFAE4CCF9A88222B800C1B9E4
:10009D000059BA002DEC8BF084CFCECDFCE5F0CB22
:1000AD00F97818EF2FFFEE33FEED33FDEC33FCEB5B
:1000BD0033FB10D703994004EB99FB0FD8E5E4F916
:1000CD00FA227818EF2FFFEE33FEED33FDEC33FC03
:1000DD00C933C910D7059BE99A4007EC9BFCE99AF7
:1000ED00F90FD8E0E4C9FAE4CCFB2275F010EF2F3C
:1000FD00FFEE33FEED33FDCC33CCC833C810D7073C
:10010D009BEC9AE899400AED9BFDEC9AFCE899F876
:0E011D000FD5F0DAE4CDFBE4CCFAE4C8F92209
:00000001FF
