:0300000002029E5B
:0C029E00787FE4F6D8FD7581380202E597
:10035200C0F9A4B0999282F880908883C6A1868E53
:10036200010101010101010101010101010101017B
:10032A00101901010101010101010101010101018C
:10033A0001010108001009FFFFFFFFFFFFFFFFFF98
:07034A00FFFFFFFFFFFFFFB3
:1002090078297C007D007BFF7A0379627E007F106C
:100219001201E3D2AFC294D293C292C291C2907535
:100229008901758CFC758A67D2A9D28C900352E436
:1002390093F580E4FFEFC394047480948050F4E450
:10024900FEEEC39404748094805047EF25E025E0C6
:1002590024192EF8E6FDEF25E025E024292EF8E6FD
:10026900FC6D602BEC601D75F004EFA42EF582E4A3
:1002790035F0F583E5822452F582E5833403F5836D
:10028900E493F580EF25E025E024292EF8A6050E54
:0502990080AF0F80A002
:03000B0002000EE2
:0F000E00C0E0C0D075D000C000C004C005C0075E
:10001D00758CFC758A67E50814600E14600F14600A
:10002D00102403700EC2A3800AC2A28006C2A18052
:10003D0002C2A0E50825E025E02409F8E625E0FF49
:10004D00A2A4E4334FFFE50825E025E02409F8A636
:10005D0007E50825E025E0240AF8E625E0FFA2A53E
:10006D00E4334FFFE50825E025E0240AF8A607E56F
:10007D000825E025E0240BF8E625E0FFA2A6E433F1
:10008D004FFFE50825E025E0240BF8A607E5082538
:10009D00E025E0240CF8E625E0FFA2A7E4334FFFAE
:1000AD00E50825E025E0240CF8A607E4FFEFC3944E
:1000BD0004748094805035E50825E025E024092F4F
:1000CD00F8E6540FFD7C00700EE50825E025E024D0
:1000DD00192FF876008012ED640F4C700CE5082591
:1000ED00E025E024192FF876010F80C1050853088B
:0900FD0003D2A3D2A2D2A1D2A029
:0D010600D007D005D004D000D0D0D0E0321A
:1002AA00020209E493A3F8E493A34003F68001F25F
:1002BA0008DFF48029E493A3F85407240CC8C33355
:1002CA00C4540F4420C8834004F456800146F6DF24
:1002DA00E4800B010204081020408090032AE47E87
:1002EA00019360BCA3FF543F30E509541FFEE49319
:1002FA00A360010ECF54C025E060A840B8E493A3E0
:10030A00FAE493A3F8E493A3C8C582C8CAC583CA0A
:10031A00F0A3C8C582C8CAC583CADFE9DEE780BEC2
:0103510000AB
:10011300E709F608DFFA8046E709F208DFFA803ECE
:1001230088828C83E709F0A3DFFA8032E309F608BB
:10013300DFFA8078E309F208DFFA807088828C8323
:10014300E309F0A3DFFA806489828A83E0A3F608D7
:10015300DFFA805889828A83E0A3F208DFFA804CB1
:1001630080D280FA80C680D4806980F28033801088
:1001730080A680EA809A80A880DA80E280CA8033F1
:1001830089828A83ECFAE493A3C8C582C8CCC58369
:10019300CCF0A3C8C582C8CCC583CCDFE9DEE78039
:1001A3000D89828A83E493A3F608DFF9ECFAA9F0B8
:1001B300EDFB2289828A83ECFAE0A3C8C582C8CC0E
:1001C300C583CCF0A3C8C582C8CCC583CCDFEADE27
:1001D300E880DB89828A83E493A3F208DFF980CC89
:1001E30088F0EF60010E4E60C388F0ED2402B40482
:1001F3000050B9F582EB2402B4040050AF23234529
:06020300822390016373E9
:00000001FF
