:030000000201A357
:0C01A300787FE4F6D8FD7581200201EAA7
:1004D30062757A7A206F6E0062757A7A206F66662B
:1004E3000062616420636F6D6D616E642E0D0A009E
:06050F00011600011700B7
:10000E00D2AF7F017E0012022F7F807E25120484E4
:05001E001204F380FB59
:10044D008B0C8A0D890EAF121512EF6028AB0F05BC
:10045D0011E511AA107002051014F9120026FFAB58
:10046D000C050EE50EAA0D7002050D14F9120026ED
:07047D006F60D3C322D322FC
:1002A8008D0B8B088A09890A750FFF751004751163
:1002B800D375120712044D5004C2968025750FFF9E
:1002C8007510047511DB751208AB08AA09A90A1282
:1002D800044D5004D296800A7BFF7A0479E47D0E9F
:1002E8008024AB08AA09A90AAF0B050B8F82758376
:1002F80000740D120051AF0B050B8F8275830074CB
:0A0308000A120051AD0B1204AC22E2
:10022F00750B00750A1075090E750800E4FCFDAB1F
:10023F000BAA0AA909A808120073E47BE87A03F94C
:10024F00F81200FE8F0B8E0A8D098C08C3E4950BF4
:10025F00F50BE4950AF50A74019509F509E495087B
:10026F00F508E50B2421F50BE4350AF50AE4350909
:10027F00F509E43508F508AF0BAE0AAD09FC7808AF
:10028F001201908F16850B175389F043890185163C
:08029F008C85178AD2A9D28CCC
:0102A7002234
:03000B0002035697
:10035600C0E0C0F0C083C082C0D075D000C000C06D
:1003660001C002C003C004C005C006C00785168CC4
:1003760085178A7F01120415D007D006D005D00450
:10038600D003D002D001D000D0D0D082D083D0F01C
:03039600D0E03282
:0D051500C100C10101150001130001140017
:1004840075985053890F438920AB07AA06E4F9F8FD
:100494007F807E70FDFC120312EFF404F58D858DD0
:0804A4008BC2ABD2ACD28E2258
:1004AC008B0C8A0D890EAF051DEF601AC201AB0CC7
:1004BC00050EE50EAA0D7002050D14F9120026F5B5
:0704CC00992001E280FB22F0
:0603D9008B088A09890A65
:1003DF00EDD395154002AD15E4FFEFC39D50217489
:1003EF00002FF582E43400F583E0FEAB08050AE543
:1003FF000AAA097002050914F9EE12003F0F80DAFC
:05040F00E4F515AF0546
:0104140022C5
:10041500E515D39400748094804029E51365156033
:1004250007851513E4F51422E514C3941E7480940E
:10043500805014EF2514F514C3941E7480948040E5
:0704450006D20022E4F513CA
:01044C00228D
:1004F300300018C2007B017A0079407D281203D9AD
:0B050300AD077B017A0079401202A8CE
:01050E0022CA
:030023000203993C
:10039900C0E0C083C082C0D075D000C00730981EAD
:1003A900C298C3E5159440748094805011AF150527
:1003B9001574002FF582E43400F583E599F030993E
:1003C90004C299D201D007D0D0D082D083D0E032F4
:1001AF0002000EE493A3F8E493A34003F68001F258
:1001BF0008DFF48029E493A3F85407240CC8C33351
:1001CF00C4540F4420C8834004F456800146F6DF20
:1001DF00E4800B010204081020408090050FE47E9C
:1001EF00019360BCA3FF543F30E509541FFEE49315
:1001FF00A360010ECF54C025E060A840B8E493A3DC
:10020F00FAE493A3F8E493A3C8C582C8CAC583CA06
:10021F00F0A3C8C582C8CAC583CADFE9DEE780BEBE
:0105220000D8
:10002600BB010689828A83E0225002E722BBFE02D8
:09003600E32289828A83E493220B
:10003F00BB010689828A83F0225002F722BBFE01A0
:02004F00F3229A
:10005100F8BB010DE58229F582E5833AF583E8F0E5
:10006100225006E92582C8F622BBFE05E92582C891
:02007100F22279
:10007300E88FF0A4CC8BF0A42CFCE98EF0A42CFC2C
:100083008AF0EDA42CFCEA8EF0A4CDA8F08BF0A4AA
:100093002DCC3825F0FDE98FF0A42CCD35F0FCEB09
:1000A3008EF0A4FEA9F0EB8FF0A4CFC5F02ECD39CE
:0F00B300FEE43CFCEAA42DCE35F0FDE43CFC223B
:1000C20075F008758200EF2FFFEE33FECD33CDCCF5
:1000D20033CCC58233C5829BED9AEC99E582984078
:1000E2000CF582EE9BFEED9AFDEC99FC0FD5F0D655
:1000F200E4CEFBE4CDFAE4CCF9A88222B800C1B97F
:100102000059BA002DEC8BF084CFCECDFCE5F0CBBC
:10011200F97818EF2FFFEE33FEED33FDEC33FCEBF5
:1001220033FB10D703994004EB99FB0FD8E5E4F9B0
:10013200FA227818EF2FFFEE33FEED33FDEC33FC9D
:10014200C933C910D7059BE99A4007EC9BFCE99A91
:10015200F90FD8E0E4C9FAE4CCFB2275F010EF2FD6
:10016200FFEE33FEED33FDCC33CCC833C810D707D6
:100172009BEC9AE899400AED9BFDEC9AFCE899F811
:0E0182000FD5F0DAE4CDFBE4CCFAE4C8F922A4
:10031200C2D5E830E70FB2D5E4C39BFBE49AFAE416
:1003220099F9E498F8EC30E717B2D51203481200B5
:10033200FEE4C39BFBE49AFAE499F9E498F880039B
:100342001200FE30D50DE4C39FFFE49EFEE49DFD46
:04035200E49CFC2209
:10019000E8600FECC313FCED13FDEE13FEEF13FF4D
:0301A000D8F12271
:00000001FF
