:0300000002000EED
:0C000E00787FE4F6D8FD758109020055EA
:0400030002080000EF
:1000D400D2AF758901758CFC758A67D2A9D28CC29E
:0300E4009680FE05
:03000B0002009A56
:04009A00C0E0C0D032
:10009E00758CFC758A670509E509700205082096BE
:1000AE000DC394F4E50894014017D296800DC3E574
:1000BE000994DCE50894054008C296750800750998
:0100CE000031
:0500CF00D0D0D0E032AA
:10001A000200D4E493A3F8E493A34003F68001F228
:10002A0008DFF48029E493A3F85407240CC8C333E7
:10003A00C4540F4420C8834004F456800146F6DFB6
:10004A00E4800B0102040810204080900003E47E43
:10005A00019360BCA3FF543F30E509541FFEE493AB
:10006A00A360010ECF54C025E060A840B8E493A372
:10007A00FAE493A3F8E493A3C8C582C8CAC583CA9D
:10008A00F0A3C8C582C8CAC583CADFE9DEE780BE55
:0100070000F8
:00000001FF
