:0300000002000EED
:0C000E00787FE4F6D8FD758120020055D3
:10011B00C0F9A4B0999282F880908883C6A1868E8C
:05000300C1800108FFAF
:10009A00D201E4FFD2AFC294D293C292C291C2906B
:1000AA00758901758CF8758ACDD2A9D28C75A0F79D
:1000BA0090011B93F580A200300101B350F8200192
:1000CA00140FEFC3940A748094804002E4FFEF9007
:0B00DA00011B93F580A200920180DB67
:03000B000200E50B
:0B00E500C0E0C0D075D000C006C0070E
:1000F000758CF8758ACDE50825E0FFA2A7E4334F9B
:10010000F508FF7E007004C2008007EFF44E700215
:02011000D2001B
:09011200D007D006D0D0D0E032B5
:10001A0002009AE493A3F8E493A34003F68001F262
:10002A0008DFF48029E493A3F85407240CC8C333E7
:10003A00C4540F4420C8834004F456800146F6DFB6
:10004A00E4800B0102040810204080900003E47E43
:10005A00019360BCA3FF543F30E509541FFEE493AB
:10006A00A360010ECF54C025E060A840B8E493A372
:10007A00FAE493A3F8E493A3C8C582C8CAC583CA9D
:10008A00F0A3C8C582C8CAC583CADFE9DEE780BE55
:0100080000F7
:00000001FF
