:030000000201FA00
:0C01FA00787FE4F6D8FD758120020241F8
:0B0537000000000000000000DFF622C2
:1004B700C2AFC2B27F32120537D2B27F06120537FA
:0B04C700A2B2920230B2FDD2AFA2023E
:0104D2002207
:02049100AE07B4
:10049300C2AF7D01ED601AC2B200005E7004C2B249
:1004A3008002D2B27F06120537D2B2ED25E0FD807D
:0304B300E3D2AFE2
:0104B6002223
:10046700C2AF7D01ED601EC2B20000D2B200002013
:10047700B205F452068003ED42067F06120537EDFA
:0904870025E0FD80DFD2AFAF06D5
:010490002249
:100503001204B7920120010A7FCC1204917F441296
:050513000491A201B3F8
:0105180022C0
:100439001204B792012001227FCC1204917FBE12CF
:100449000491120467AC07120467EFFEAD047C0047
:0D045900E42DFFEC3E8FF0120056A201B31F
:010466002273
:10051900C0F9A4B0999282F880908883C6A1868E8A
:0B04EB000611FFFFFFFFFFFF011000E4
:0E0529007580FFC294D293D292D291D29022CA
:10037E007580FFE51014601C14602514602E146047
:10038E003714604024057048C292C291C290051085
:10039E0085118022C292C291D290051085128022C0
:1003AE00C292D291C290051085138022C292D29130
:1003BE00D290051085148022D292C291C29005105F
:1003CE0085158022D292C291D290E4F510851680C6
:0103DE0022FC
:1004D300ED90051993FE74112FF8A606EB600874CE
:0804E300112FF8E6547FF62208
:0C04F600C103011900011A0002170000E8
:10028600D2AF1205291205037F017E001203053045
:1002960003FDC2037B007A0079081204399200300C
:1002A6000058AE08E5097804CEA2E713CE13D8F8B5
:1002B600F50B8E0A7E00E509540FFF7C007D0A12BD
:1002C600000E7D10120020AD07E4FBFF1204D3AE32
:1002D6000AAF0B7C007D0A1200207B017F0112040D
:1002E600D3AE0AAF0B7C007D0A1200207C007D0A8B
:0F02F600120020E4FB7F021204D3120503809054
:10030500750F00750E10750D0E750C00E4FCFDAB38
:100315000FAA0EA90DA80C120075E47BE87A03F963
:10032500F81201008F0F8E0E8D0D8C0CC3E4950F06
:10033500F50FE4950EF50E7401950DF50DE4950C8C
:10034500F50CE50F2421F50FE4350EF50EE4350D1A
:10035500F50DE4350CF50CAF0FAE0EAD0DFC7808C0
:100365001201928F19850F1A5389F0438901851956
:080375008C851A8AD2A9D28CF2
:01037D00225D
:03000B000203DF0E
:1003DF00C0E0C0F0C083C082C0D075D000C000C0E4
:0D03EF0001C002C003C004C005C006C00765
:1003FC0085198C851A8A12037E0518E5187002057A
:10040C0017C394E8E5179403400875170075180096
:02041C00D20309
:10041E00D007D006D005D004D003D002D001D00032
:0B042E00D0D0D082D083D0F0D0E032DC
:10020600020286E493A3F8E493A34003F68001F286
:1002160008DFF48029E493A3F85407240CC8C333F9
:10022600C4540F4420C8834004F456800146F6DFC8
:10023600E4800B01020408102040809004EBE47E69
:10024600019360BCA3FF543F30E509541FFEE493BD
:10025600A360010ECF54C025E060A840B8E493A384
:10026600FAE493A3F8E493A3C8C582C8CAC583CAAF
:10027600F0A3C8C582C8CAC583CADFE9DEE780BE67
:0105020000F8
:10000E00EF8DF0A4A8F0CF8CF0A428CE8DF0A42E06
:02001E00FE22C0
:10002000C2D5EC30E709B2D5E4C39DFDE49CFCEEFB
:1000300030E715B2D5E4C39FFFE49EFE1201A5C3CD
:10004000E49DFDE49CFC80031201A530D507C3E4C8
:060050009FFFE49EFE226A
:10005600BB010A89828A83F0E5F0A3F0225006F7F5
:0F00660009A7F01922BBFE06F3E5F009F31922F2
:10007500E88FF0A4CC8BF0A42CFCE98EF0A42CFC2A
:100085008AF0EDA42CFCEA8EF0A4CDA8F08BF0A4A8
:100095002DCC3825F0FDE98FF0A42CCD35F0FCEB07
:1000A5008EF0A4FEA9F0EB8FF0A4CFC5F02ECD39CC
:0F00B500FEE43CFCEAA42DCE35F0FDE43CFC2239
:1000C40075F008758200EF2FFFEE33FECD33CDCCF3
:1000D40033CCC58233C5829BED9AEC99E582984076
:1000E4000CF582EE9BFEED9AFDEC99FC0FD5F0D653
:1000F400E4CEFBE4CDFAE4CCF9A88222B800C1B97D
:100104000059BA002DEC8BF084CFCECDFCE5F0CBBA
:10011400F97818EF2FFFEE33FEED33FDEC33FCEBF3
:1001240033FB10D703994004EB99FB0FD8E5E4F9AE
:10013400FA227818EF2FFFEE33FEED33FDEC33FC9B
:10014400C933C910D7059BE99A4007EC9BFCE99A8F
:10015400F90FD8E0E4C9FAE4CCFB2275F010EF2FD4
:10016400FFEE33FEED33FDCC33CCC833C810D707D4
:100174009BEC9AE899400AED9BFDEC9AFCE899F80F
:0E0184000FD5F0DAE4CDFBE4CCFAE4C8F922A2
:10019200E8600FECC313FCED13FDEE13FEEF13FF4B
:0301A200D8F1226F
:1001A500BC000BBE0029EF8DF084FFADF022E4CC3E
:1001B500F875F008EF2FFFEE33FEEC33FCEE9DEC07
:1001C500984005FCEE9DFE0FD5F0E9E4CEFD22ED4D
:1001D500F8F5F0EE8420D21CFEADF075F008EF2F97
:1001E500FFED33FD4007985006D5F0F222C398FD88
:0501F5000FD5F0EA2225
:00000001FF
