:0300000002010DED
:0C010D00787FE4F6D8FD758120020154D3
:10000300C100010B00011B00010C01020D010204E0
:0F0013000F010203040813010203040506070886
:10019900D2AF7F807E2512028D3000FDC200E50BB3
:1001A90024FE601A146027146034240370EB750868
:1001B90000750900750A0C751B01D29980DB750859
:1001C90000750900750A0D751B02D29980CB750857
:1001D90000750900750A0F751B04D29980BB750853
:0E01E90000750900750A13751B08D29980ABCA
:10028D0075985053890F438920AB07AA06E4F9F8F6
:10029D007F807E70FDFC120249EFF404F58D858D93
:0802AD008BC2ABD2ACD28E2251
:030023000201F7E0
:1001F700C0E0C083C082C0D075D000C001C002C0BB
:1002070003309807C29885990BD200309925C29977
:10021700D3E51B9400748094804018AB08AA09A901
:100227000A120026F599151B7401250AF50AE4350B
:1002370009F509D003D002D001D0D0D082D083D025
:02024700E032A3
:10011900020199E493A3F8E493A34003F68001F262
:1001290008DFF48029E493A3F85407240CC8C333E7
:10013900C4540F4420C8834004F456800146F6DFB6
:10014900E4800B0102040810204080900003E47E43
:10015900019360BCA3FF543F30E509541FFEE493AB
:10016900A360010ECF54C025E060A840B8E493A372
:10017900FAE493A3F8E493A3C8C582C8CAC583CA9D
:10018900F0A3C8C582C8CAC583CADFE9DEE780BE55
:0100220000DD
:10002600BB010689828A83E0225002E722BBFE02D8
:09003600E32289828A83E493220B
:10024900C2D5E830E70FB2D5E4C39BFBE49AFAE4E0
:1002590099F9E498F8EC30E717B2D512027F120049
:100269007BE4C39BFBE49AFAE499F9E498F88003E8
:1002790012007B30D50DE4C39FFFE49EFEE49DFD93
:04028900E49CFC22D3
:10003F0075F008758200EF2FFFEE33FECD33CDCC78
:10004F0033CCC58233C5829BED9AEC99E5829840FB
:10005F000CF582EE9BFEED9AFDEC99FC0FD5F0D6D8
:10006F00E4CEFBE4CDFAE4CCF9A88222B800C1B902
:10007F000059BA002DEC8BF084CFCECDFCE5F0CB40
:10008F00F97818EF2FFFEE33FEED33FDEC33FCEB79
:10009F0033FB10D703994004EB99FB0FD8E5E4F934
:1000AF00FA227818EF2FFFEE33FEED33FDEC33FC21
:1000BF00C933C910D7059BE99A4007EC9BFCE99A15
:1000CF00F90FD8E0E4C9FAE4CCFB2275F010EF2F5A
:1000DF00FFEE33FEED33FDCC33CCC833C810D7075A
:1000EF009BEC9AE899400AED9BFDEC9AFCE899F895
:0E00FF000FD5F0DAE4CDFBE4CCFAE4C8F92228
:00000001FF
