:03000000020407F0
:0C040700787FE4F6D8FD75813102044EC8
:1005D3008B258A2689278D281209C97FA012084DE9
:1005E300400512000E80F1AF2812084D1209C97F91
:1005F300A112084DD3E52994017480948040191207
:1006030008B6AB250527E527AA267002052614F9A7
:10061300EF120135152980DC120883AB25AA26A920
:0806230027EF12013502000E61
:10062B008B2D8A2E892F8D30D3E5319400748094D5
:10063B008040431209C97FA012084D400512000EDD
:10064B0080F1AF3012084DD3E53194007480948063
:10065B00401FAB2D052FE52FAA2E7002052E14F986
:10066B0012011CFF12084D15310530E5305407708F
:07067B00D612000E80B2222E
:1009C900D2B6D2B700000000C2B600000000C2B71C
:0109D90022FB
:10000E00C2B7C2B600000000D2B700000000D2B6E0
:05001E000000000022BB
:10084D007E80EE601B5F7004C2B68002D2B60000DF
:10085D000000D2B700000000C2B7EEC313FE80E265
:10086D00D2B600000000D2B7A2B69203000000007D
:05087D00C2B7A203B3A5
:010882002253
:10088300D2B67E80EE601D00000000D2B720B60510
:10089300F452078003EE420700000000C2B7EEC324
:1008A30013FE80E0D2B600000000D2B700000000C3
:0208B300C2B7CA
:0108B5002220
:1008B600D2B67E80EE601D00000000D2B720B605DD
:1008C600F452078003EE420700000000C2B7EEC3F1
:1008D60013FE80E0C2B600000000D2B700000000A0
:0208E600C2B797
:0108E80022ED
:1006D30062616420706172616D657465722E0D0ACA
:1006E3000062616420636F6D6D616E642E0D0A009C
:1006F300C0F9A4B0999282F880908883C6A1868EAF
:100703007365747220007365746720007365747970
:0B071300200005050507030709070F7C
:1008E900070DFFFFFFFFFFFFFFC182011400011584
:0E08F90000010802010900010A00020B0000C4
:10098900D2AFC294D2937F017E001204937F807EFE
:100999002512091512050C1209AD3002FAC202120C
:0409A900068280F34F
:10050C007B007A0079217529037D101205D3AF2168
:10051C00C3EF940174809480400AD3EF9463748089
:10052C009480400575161E8003852116AF22C3EFFB
:10053C00940174809480400AD3EF94637480948007
:10054C0040057517288003852217AF23C3EF94014C
:10055C0074809480400AD3EF940A74809480400491
:07056C007518032285231816
:010573002265
:10035500E4F52BF52CFFEFC39402748094805028AC
:1003650012011CFEC39430401FEED394395019E599
:100375002B75F00AA4F52BEE24D0252BF52B740153
:1003850029F9E43AFA0F80CEED14602414603E2476
:10039500027058AF2B7E00C3EF94017480948040A7
:1003A5004AD3EF9463748094805040852B1680382F
:1003B500AF2B7E00C3EF940174809480402DD3EF62
:1003C5009463748094805023852B17801BAF2B7EFC
:1003D50000C3EF9401748094804010D3EF940A74A5
:1003E5008094805006852B18752C01E52C60107BB8
:1003F500007A00792BED2410FD75310112062BAF23
:010405002CCA
:0104060022D3
:10068200E5097033E50814601414601E2402702911
:10069200750801E51814F5097513E7801C75080241
:1006A200E51614F5097513FC800FE4F508E5171437
:1006B200F50975133F80021509E50975F00A84E50D
:1006C200F09006F393F50DE50975F00A8493F50EA3
:0106D2002205
:100816008B2B8A2C892DAF311531EF6028AB2E0535
:1008260030E530AA2F7002052F14F912011CFFAB18
:100836002B052DE52DAA2C7002052C14F912011C8E
:070846006F60D3C322D3222F
:080299008B218A2289238D24A8
:1002A10078257C007D007BFF7A0779187E007F0628
:1002B1001200F6E4FDEDC3940374809480502DED9B
:1002C10090071593FFE524C39F401EED25E02425EB
:1002D100F8E6FA08E6752EFF8A2FF5308F31AB214B
:1002E100AA22A92312081640030D80C9EDC3940365
:1002F100748094805052AB21AA22A923852482754F
:100301008300E4120147ED900715937E0029F9EE71
:100311003AFA120355EF6026AB21AA22A923AF2492
:1003210005248F82758300740D120147AF240524C3
:100331008F82758300740A120147AD2480127BFFFE
:100341007A0679D37D1080087BFF7A0679E47D0EE9
:0303510012093D51
:010354002286
:1004930075240075231075220E752100E4FCFDAB55
:1004A30024AA23A922A821120169E47BE87A03F98B
:1004B300F81201F48F248E238D228C21C3E495241A
:1004C300F524E49523F52374019522F522E495217F
:1004D300F521E5242421F524E43523F523E435220D
:1004E300F522E43521F521AF24AE23AD22FC7808B3
:1004F3001202868F148524155389F04389018514CC
:080503008C85158AD2A9D28C67
:01050B0022CD
:100964007580FFE59054F8450AF590740D250AF852
:10097400E6F580C3E50A9406748094805003050A62
:0409840022E4F50A6A
:01098800224C
:03000B0002057477
:10057400C0E0C0F0C083C082C0D075D000C000C04D
:0D05840001C002C003C004C005C006C007CE
:1005910085148C85158A1209647F011207DE050C0A
:1005A100E50C7002050BC394E8E50B940340087554
:0705B1000B00750C00D202E3
:1005B800D007D006D005D004D003D002D001D00097
:0B05C800D0D0D082D083D0F0D0E03241
:0D090700C100C101011B00011900011A000F
:1009150075985053890F438920AB07AA06E4F9F867
:100925007F807E70FDFC12071EEFF404F58D858D2A
:080935008BC2ABD2ACD28E22C2
:10093D008B2B8A2C892DAF051DEF601AC201AB2BB5
:10094D00052DE52DAA2C7002052C14F912011CF5AC
:07095D00992001E280FB225A
:0607A2008B218A2289234D
:1007A800EDD3951B4002AD1BE4FFEFC39D502174B0
:1007B800002FF582E43400F583E0FEAB210523E544
:1007C80023AA227002052214F9EE1201350F80DAED
:0507D800E4F51BAF0574
:0107DD0022F9
:1007DE00E51BD39400748094804029E519651B6055
:1007EE0007851B19E4F51A22E51AC3941E7480942A
:1007FE00805014EF251AF51AC3941E74809480400D
:07080E0006D20022E4F519F7
:0108150022C0
:1009AD00300018C2007B017A0079407D281207A221
:0B09BD00AD077B017A0079401202991F
:0109C800220C
:030023000207626F
:10076200C0E0C083C082C0D075D000C00730981EE0
:10077200C298C3E51B9440748094805011AF1B054E
:100782001B74002FF582E43400F583E599F030996B
:1007920004C299D201D007D0D0D082D083D0E03227
:10041300020989E493A3F8E493A34003F68001F26D
:1004230008DFF48029E493A3F85407240CC8C333EA
:10043300C4540F4420C8834004F456800146F6DFB9
:10044300E4800B01020408102040809008E9E47E58
:10045300019360BCA3FF543F30E509541FFEE493AE
:10046300A360010ECF54C025E060A840B8E493A375
:10047300FAE493A3F8E493A3C8C582C8CAC583CAA0
:10048300F0A3C8C582C8CAC583CADFE9DEE780BE58
:0109140000E2
:10002600E709F608DFFA8046E709F208DFFA803EBC
:1000360088828C83E709F0A3DFFA8032E309F608A9
:10004600DFFA8078E309F208DFFA807088828C8311
:10005600E309F0A3DFFA806489828A83E0A3F608C5
:10006600DFFA805889828A83E0A3F208DFFA804C9F
:1000760080D280FA80C680D4806980F28033801076
:1000860080A680EA809A80A880DA80E280CA8033DF
:1000960089828A83ECFAE493A3C8C582C8CCC58357
:1000A600CCF0A3C8C582C8CCC583CCDFE9DEE78027
:1000B6000D89828A83E493A3F608DFF9ECFAA9F0A6
:1000C600EDFB2289828A83ECFAE0A3C8C582C8CCFC
:1000D600C583CCF0A3C8C582C8CCC583CCDFEADE15
:1000E600E880DB89828A83E493A3F208DFF980CC77
:1000F60088F0EF60010E4E60C388F0ED2402B40470
:100106000050B9F582EB2402B4040050AF23234516
:06011600822390007673C5
:10011C00BB010689828A83E0225002E722BBFE02E1
:09012C00E32289828A83E4932214
:10013500BB010689828A83F0225002F722BBFE01A9
:02014500F322A3
:10014700F8BB010DE58229F582E5833AF583E8F0EE
:10015700225006E92582C8F622BBFE05E92582C89A
:02016700F22282
:10016900E88FF0A4CC8BF0A42CFCE98EF0A42CFC35
:100179008AF0EDA42CFCEA8EF0A4CDA8F08BF0A4B3
:100189002DCC3825F0FDE98FF0A42CCD35F0FCEB12
:100199008EF0A4FEA9F0EB8FF0A4CFC5F02ECD39D7
:0F01A900FEE43CFCEAA42DCE35F0FDE43CFC2244
:1001B80075F008758200EF2FFFEE33FECD33CDCCFE
:1001C80033CCC58233C5829BED9AEC99E582984081
:1001D8000CF582EE9BFEED9AFDEC99FC0FD5F0D65E
:1001E800E4CEFBE4CDFAE4CCF9A88222B800C1B988
:1001F8000059BA002DEC8BF084CFCECDFCE5F0CBC6
:10020800F97818EF2FFFEE33FEED33FDEC33FCEBFE
:1002180033FB10D703994004EB99FB0FD8E5E4F9B9
:10022800FA227818EF2FFFEE33FEED33FDEC33FCA6
:10023800C933C910D7059BE99A4007EC9BFCE99A9A
:10024800F90FD8E0E4C9FAE4CCFB2275F010EF2FDF
:10025800FFEE33FEED33FDCC33CCC833C810D707DF
:100268009BEC9AE899400AED9BFDEC9AFCE899F81A
:0E0278000FD5F0DAE4CDFBE4CCFAE4C8F922AD
:10071E00C2D5E830E70FB2D5E4C39BFBE49AFAE406
:10072E0099F9E498F8EC30E717B2D5120754120194
:10073E00F4E4C39BFBE49AFAE499F9E498F8800395
:10074E001201F430D50DE4C39FFFE49EFEE49DFD3F
:04075E00E49CFC22F9
:10028600E8600FECC313FCED13FDEE13FEEF13FF56
:03029600D8F1227A
:00000001FF
