:0300000002069362
:0C069300787FE4F6D8FD7581610206DA7C
:0B0FA7000000000000000000DFF62248
:100EE600C2AFC2B27F32120FA7D2B27F06120FA7CD
:0B0EF600A2B2920330B2FDD2AFA20303
:010F010022CD
:020E7A00AE07C1
:100E7C00C2AF7D01ED601AC2B200005E7004C2B256
:100E8C008002D2B27F06120FA7D2B2ED25E0FD8010
:030E9C00E3D2AFEF
:010E9F002230
:100E0100C2AF7D01ED601EC2B20000D2B20000206F
:100E1100B205F452068003ED42067F06120FA7EDDC
:090E210025E0FD80DFD2AFAF0631
:010E2A0022A5
:100F5100120EE6920220020A7FCC120E7A7F441210
:050F61000E7AA202B3AC
:010F66002268
:100DD300120EE692022002227FCC120E7A7FBE12FE
:100DE3000E7A120E01AC07120E01EFFEAD047C0069
:0D0DF300E42DFFEC3E8FF0120099A202B338
:010E000022CF
:100A39008B568A5789588D59120F787FA0120D0845
:100A4900400512000E80F1AF59120D08120F787F80
:100A5900A1120D08D3E55A940174809480401912AB
:100A69000D71AB560558E558AA577002055714F988
:100A7900EF12003F155A80DC120D3EAB56AA57A95A
:080A890058EF12003F02000EBD
:100AE9008B568A5789588D59D3E55A940074809446
:100AF900804043120F787FA0120D08400512000EA6
:100B090080F1AF59120D08D3E55A9400748094808E
:100B1900401FAB560558E558AA577002055714F9F6
:100B2900120026FF120D08155A0559E55954077088
:070B3900D612000E80B2226B
:0B0EA000AF5CAE5BAD5AAC591201070D
:100EAB007E80EE6013C2B55F7004C2958002D2954E
:080EBB00D2B5EEC313FE80EA7C
:010EC300220C
:100F1E007E80EE6015C2B520B405F452078003EE54
:0A0F2E004207D2B5EEC313FE80E8BF
:010F38002296
:100F6700C2977F05120EAB120F1ED297EF20E0F04B
:010F77002257
:100B40008B568A5789588F5C8E5B8D5A8C59120F41
:100B500067C2977F03120EAB7810120EA0780812AE
:100B60000EA0AF5C120EABE55E155EAE5D700215B9
:100B70005D4E6017120F1EAB560558E558AA577008
:0E0B800002055714F9EF12003F80DCD29722D5
:100BD2008F598E588D578C56120F67C2977F061207
:100BE2000EABD297C2977F20120EABAF59AE58AD63
:100BF20057AC567810120107120EABAF59AE58AD72
:100C020057AC567808120107120EABAF59120EAB51
:030C1200D2972254
:0E0606008B568A5789588F5C8E5B8D5A8C59A3
:10061400E4C39FFF74019400AD07FCD3E55E9DE540
:100624005D9C40048C5D8D5E120F67C2977F06123D
:100634000EABD297C2977F02120EABAF5CAE5BAD2E
:100644005AAC597810120107120EABAF5CAE5BAD19
:100654005AAC597808120107120EABAF5C120EABFC
:10066400E4FCFDC3ED955EEC955D501CAB5605585E
:10067400E558AA577002055714F9120026FF120E06
:0E068400AB0DBD00010C80DBD297AE5DAF5E0A
:010692002245
:100F7800D2B6D2B700000000C2B600000000C2B767
:010F88002246
:10000E00C2B7C2B600000000D2B700000000D2B6E0
:05001E000000000022BB
:100D08007E80EE601B5F7004C2B68002D2B600001F
:100D18000000D2B700000000C2B7EEC313FE80E2A5
:100D2800D2B600000000D2B7A2B6920200000000BE
:050D3800C2B7A202B3E6
:010D3D002293
:100D3E00D2B67E80EE601D00000000D2B720B60550
:100D4E00F452078003EE420700000000C2B7EEC364
:100D5E0013FE80E0D2B600000000D2B70000000003
:020D6E00C2B70A
:010D70002260
:100D7100D2B67E80EE601D00000000D2B720B6051D
:100D8100F452078003EE420700000000C2B7EEC331
:100D910013FE80E0C2B600000000D2B700000000E0
:020DA100C2B7D7
:010DA300222D
:100F8900313233263435362537383928301B0D2789
:1009D50010420101010101010101010101010101B2
:1009E50001011021010101010101010101010101C3
:1009F500010101010131001032FFFFFFFFFFFFFF81
:090A0500FFFFFFFFFFFFFFFFFFF1
:1007A700E4F554C3E5549404748094805070E4F5E0
:1007B70055C3E555940474809480505EE55425E054
:1007C70025E024422555F8E6FFE55425E025E024F9
:1007D700212555F8E6FE6F603DEE6020E55425E0E3
:1007E70025E02489F582E4340FF583E5822555F564
:1007F70082E43583F583E493FF12096CE55425E021
:1008070025E024422555F8E6FFE55425E025E024B8
:0E081700212555F8A6070555809705548085C4
:0108250022B0
:10044D00E53114600E14600F1460102403700EC299
:10045D00A3800AC2A28006C2A18002C2A0E53125F6
:10046D00E025E02432F8E625E0FFA2A4E4334FFFB7
:10047D00E53125E025E02432F8A607E53125E02514
:10048D00E02433F8E625E0FFA2A5E4334FFFE53184
:10049D0025E025E02433F8A607E53125E025E02405
:1004AD0034F8E625E0FFA2A6E4334FFFE53125E061
:1004BD0025E02434F8A607E53125E025E02435F8BC
:1004CD00E625E0FFA2A7E4334FFFE53125E025E067
:1004DD002435F8A607E4FFEFC3940474809480508C
:1004ED0035E53125E025E024322FF8E6540FFD7C6B
:1004FD0000700EE53125E025E024422FF8E4F6806A
:10050D0012ED640F4C700CE53125E025E024422FEF
:10051D00F876010F80C10531533103D2A3D2A2D297
:03052D00A1D2A0B8
:0105300022A8
:10023D00C0F9A4B0999282F880908883C6A1868E69
:10024D000000000800000000000000180000000081
:10025D000000001810000000000000181800000039
:10026D00000000181C0000000000001C1C00000015
:10027D000000041C1C00000000000C1C1C000000F1
:10028D0000001C1C1C00000000003C1C1C00000099
:10029D0000003C3C1C00000000003C3C3C00000009
:1002AD0000003C3C3C20000000003C3C3C30000089
:1002BD0000003C3C3C38000000003C3C3C3C000055
:1002CD0000003C3C3C3E000000003C3C3E3E00003B
:1002DD0000003C3E3E3E000000003E3E3E3E000023
:1002ED0000023E3E3E3E000000063E3E3E3E000009
:1002FD00000E3E3E3E3E0000001E3E3E3E3E0000D5
:10030D00003E3E3E3E3E0000007E3E3E3E3E000034
:10031D00007E7E3E3E3E0000007E7E7E3E3E000024
:10032D00007E7E7E7E3E0000007E7E7E7E7E000014
:10033D00007E7E7E7E7E4000007E7E7E7E7E600024
:10034D00007E7E7E7E7E7000007E7E7E7E7E7800CC
:10035D00007E7E7E7E7E7C00007E7E7E7E7E7E00AA
:10036D00007E7E7E7E7E7F00007E7E7E7E7F7F0095
:10037D00007E7E7E7F7F7F00007E7E7F7F7F7F0081
:10038D00007E7F7F7F7F7F00007F7F7F7F7F7F006D
:10039D00017F7F7F7F7F7F00037F7F7F7F7F7F0058
:1003AD00077F7F7F7F7F7F000F7F7F7F7F7F7F0036
:1003BD001F7F7F7F7F7F7F003F7F7F7F7F7F7F00DE
:1003CD007F7F7F7F7F7F7F00FF7F7F7F7F7F7F00AE
:1003DD00FFFF7F7F7F7F7F00FFFFFF7F7F7F7F009E
:1003ED00FFFFFFFF7F7F7F00FFFFFFFFFF7F7F008E
:1003FD00FFFFFFFFFFFF7F00FFFFFFFFFFFFFF007E
:10040D00FFFFFFFFFFFFFF80FFFFFFFFFFFFFFC0AD
:10041D00FFFFFFFFFFFFFFE0FFFFFFFFFFFFFFF00D
:10042D00FFFFFFFFFFFFFFF8FFFFFFFFFFFFFFFCD9
:10043D00FFFFFFFFFFFFFFFEFFFFFFFFFFFFFFFFC0
:0B0A0E00C104010801010900010A00F9
:0E0F99007580FFC294D293D292D291D2902250
:100EC400E508F4F51920040DE50825E0F50864802B
:100ED400700FD20422E508C313F50864017002C23E
:010EE4000409
:010EE50022EA
:100F3900ED90023D93FE74132FF8A606EB6008743A
:080F4900132FF8E6547FF62295
:04053100AD07AC0660
:10053500C3EC648094804018E4F554ED7804CEA2B1
:10054500E713CE13D8F8F5568E55755700ED801E76
:10055500755401C3E49DFBE49CFAFEEB7804CEA23E
:10056500E713CE13D8F8F5568E55755700EB540F93
:10057500F558AE57AF587C007D0A1200517D101218
:1005850000638E578F58AD58E4FBFF120F39AE55F7
:10059500AF567C007D0A1200630B7F01120F397A7A
:1005A50002EAC39404748094805033AE55AF567CF0
:1005B500007D0A1200638E558F56D3E5569400E5EB
:1005C50055648094804017AF02C007AF567C007D0C
:1005D5000A120063D007E4FB120F390A80C3E55401
:1005E50064017009AF020A74132FF876BFEAC39449
:1005F5000474809480500974132AF876FF0A80EDFC
:0106050022D2
:10071F00E509FD7C00C39440748094805036E4FF5B
:10072F00EFC3940874809480502775F008E509A4EE
:10073F00244DF582E5F03402F583E5822FF582E44E
:10074F003583F583E493F4FE740B2FF8A6060F8020
:10075F00CF050922C3ED9480EC648094805035E47A
:10076F00FFEFC3940874809480502675F008E50954
:10077F00A4244DF582E5F03400F583E5822FF58250
:10078F00E43583F583E493FE740B2FF8A6060F80F0
:07079F00D0050922E4F50971
:0107A6002230
:100DA4007580FFE59054F0450AF5907E007B007451
:100DB4000B250AF9EE3400FA120026F580C3E50A81
:0E0DC400940E748094805003050A22E4F50A10
:010DD20022FE
:070003006B65793A307800CB
:100A1900C105021E0000011D00011B00011C00018F
:020A29001A00B1
:1008260075520A755314D2AF7F017E001209017FFB
:10083600807E25120E2B120F99120F51120FB21233
:1008460007A7120F023005F7C205D3E553940074CB
:10085600809480400E1553E55370E4120C55120A2D
:100866009180DC120EC412071F0552C3E552940A8A
:100876007480948040C9E4F552FB7A00791E120D0B
:0F088600D35007AF1FAE1E120531120F5180B0B5
:100C55007554337555AA7B007A007954755A027D0F
:100C650060120AE9E4F554F555FB7A007954755A92
:100C7500027D60120A39E55464337009E55564AAAA
:0E0C85007003FB80027B017D0E7F05120F398C
:010C9300223E
:100A91007554337555AA7F007E007D017C00120BD1
:100AA100D27B007A007954755D00755E027F007E0D
:100AB100007D017C00120606E4F554F555FB7A0031
:100AC1007954F55D755E02FFFE7D01FC120B40E578
:100AD1005464337009E55564AA7003FB80027B01FD
:070AE1007D0F7F04120F39A5
:010AE80022EB
:02096C008F56A4
:10096E00120FB2AF567E00EF640D7004C2B3800852
:10097E00EF641B4E7002D2B3E556C4540FF557D335
:10098E009409748094805004743080027437255713
:10099E00F557E556540FF558D3940974809480504A
:1009AE00047430800274372558F55875590D755AF0
:1009BE000A7BFF7A0079037D06120E537B007A00C4
:0709CE0079577D04020E536E
:030FB800020E53D3
:060FB200751D64C29622C9
:10090100E4FCFDFB7A10790EF81200B8E47BE87A7A
:1009110003F9F8120B8E8F578E568D558C54C3E404
:100921009557F557E49556F55674019555F555E4E7
:100931009554F554E5572421F557E43556F556E419
:100941003555F555E43554F554AF57AE56AD55FC14
:1009510078081201078F1B85571C5389F0438901C1
:0A096100851B8C851C8AD2A9D28C5C
:01096B002269
:03000B0002089553
:10089500C0E0C0F0C083C082C0D075D000C000C029
:0D08A50001C002C003C004C005C006C007AA
:1008B200851B8C851C8A120DA412044D7F01120C1B
:1008C200D0051AC3E51A9464748094804005751AA1
:1008D20000D205D3E51D9400748094804004151D58
:0408E2008002D29628
:1008E600D007D006D005D004D003D002D001D00066
:0B08F600D0D0D082D083D0F0D0E03210
:0D0A2B00C100C101016100015F0001600018
:100E2B0075985053890F438920AB07AA06E4F9F84C
:100E3B007F807E70FDFC120B8EEFF404F58D858D9B
:080E4B008BC2ABD2ACD28E22A7
:100E53008B5B8A5C895DAF051DEF601AC201AB5BDA
:100E6300055DE55DAA5C7002055C14F9120026F5C8
:070E7300992001E280FB223F
:060C94008B548A558956BD
:100C9A00EDD395614002AD61E4FFEFC39D5021742D
:100CAA00002FF582E43400F583E0FEAB540556E5E7
:100CBA0056AA557002055514F9EE12003F0F80DA54
:050CCA00E4F561AF0537
:010CCF002202
:100CD000E561D39400748094804029E55F6561608C
:100CE0000785615FE4F56022E560C3941E7480941B
:100CF000805014EF2560F560C3941E74809480408A
:070D000006D20022E4F55FBA
:010D070022C9
:100F0200300018C2007B017A0079407D28120C94CF
:0B0F1200AD077B017A007940120FB898
:010F1D0022B1
:03002300020C15B7
:100C1500C0E0C083C082C0D075D000C00730981E28
:100C2500C298C3E5619440748094805011AF61050A
:100C35006174002FF582E43400F583E599F030996D
:100C450004C299D201D007D0D0D082D083D0E0326F
:10069F00020826E493A3F8E493A34003F68001F243
:1006AF0008DFF48029E493A3F85407240CC8C3335C
:1006BF00C4540F4420C8834004F456800146F6DF2B
:1006CF00E4800B01020408102040809009D5E47EDD
:1006DF00019360BCA3FF543F30E509541FFEE49320
:1006EF00A360010ECF54C025E060A840B8E493A3E7
:1006FF00FAE493A3F8E493A3C8C582C8CAC583CA12
:10070F00F0A3C8C582C8CAC583CADFE9DEE780BEC9
:010A380000BD
:10002600BB010689828A83E0225002E722BBFE02D8
:09003600E32289828A83E493220B
:10003F00BB010689828A83F0225002F722BBFE01A0
:02004F00F3229A
:10005100EF8DF0A4A8F0CF8CF0A428CE8DF0A42EC3
:02006100FE227D
:10006300C2D5EC30E709B2D5E4C39DFDE49CFCEEB8
:1000730030E715B2D5E4C39FFFE49EFE12011AC315
:10008300E49DFDE49CFC800312011A30D507C3E410
:060093009FFFE49EFE2227
:10009900BB010A89828A83F0E5F0A3F0225006F7B2
:0F00A90009A7F01922BBFE06F3E5F009F31922AF
:1000B800E88FF0A4CC8BF0A42CFCE98EF0A42CFCE7
:1000C8008AF0EDA42CFCEA8EF0A4CDA8F08BF0A465
:1000D8002DCC3825F0FDE98FF0A42CCD35F0FCEBC4
:1000E8008EF0A4FEA9F0EB8FF0A4CFC5F02ECD3989
:0F00F800FEE43CFCEAA42DCE35F0FDE43CFC22F6
:100B8E00C2D5E830E70FB2D5E4C39BFBE49AFAE492
:100B9E0099F9E498F8EC30E717B2D5120BC41201AC
:100BAE00ABE4C39BFBE49AFAE499F9E498F880036A
:100BBE001201AB30D50DE4C39FFFE49EFEE49DFD14
:040BCE00E49CFC2285
:10010700E8600FECC313FCED13FDEE13FEEF13FFD6
:03011700D8F122FA
:10011A00BC000BBE0029EF8DF084FFADF022E4CCC9
:10012A00F875F008EF2FFFEE33FEEC33FCEE9DEC92
:10013A00984005FCEE9DFE0FD5F0E9E4CEFD22EDD8
:10014A00F8F5F0EE8420D21CFEADF075F008EF2F22
:10015A00FFED33FD4007985006D5F0F222C398FD13
:05016A000FD5F0EA22B0
:10016F0075F008758200EF2FFFEE33FECD33CDCC47
:10017F0033CCC58233C5829BED9AEC99E5829840CA
:10018F000CF582EE9BFEED9AFDEC99FC0FD5F0D6A7
:10019F00E4CEFBE4CDFAE4CCF9A88222B800C1B9D1
:1001AF000059BA002DEC8BF084CFCECDFCE5F0CB0F
:1001BF00F97818EF2FFFEE33FEED33FDEC33FCEB48
:1001CF0033FB10D703994004EB99FB0FD8E5E4F903
:1001DF00FA227818EF2FFFEE33FEED33FDEC33FCF0
:1001EF00C933C910D7059BE99A4007EC9BFCE99AE4
:1001FF00F90FD8E0E4C9FAE4CCFB2275F010EF2F29
:10020F00FFEE33FEED33FDCC33CCC833C810D70728
:10021F009BEC9AE899400AED9BFDEC9AFCE899F863
:0E022F000FD5F0DAE4CDFBE4CCFAE4C8F922F6
:00000001FF
