:030000000201D426
:0C01D400787FE4F6D8FD7581200200E879
:100003008B0D8A0E890F8D101201C37FA01200B2CF
:1000130040051201AE80F1AF101200B21201C37F8E
:10002300A11200B2D3E51194017480948040191297
:100033000150AB0D050FE50FAA0E7002050E14F962
:10004300EF12019C151180DC12011DAB0DAA0EA944
:080053000FEF12019C0201AE47
:10005B008B0D8A0E890F8D10D3E51194007480944B
:10006B008040431201C37FA01200B240051201AEC3
:10007B0080F1AF101200B2D3E5119400748094801C
:10008B00401FAB0D050FE50FAA0E7002050E14F9FC
:10009B00120183FF1200B215110510E51054077001
:0700AB00D61201AE80B22263
:1001C300D2B6D2B700000000C2B600000000C2B72A
:0101D3002209
:1001AE00C2B7C2B600000000D2B700000000D2B63F
:0501BE0000000000221A
:1000B2007E80EE601B5F7004C2B68002D2B6000082
:1000C2000000D2B700000000C2B7EEC313FE80E208
:1000D200D2B600000000D2B7A2B692000000000023
:0500E200C2B7A200B34B
:0100E70022F6
:10011D00D2B67E80EE601D00000000D2B720B6057D
:10012D00F452078003EE420700000000C2B7EEC391
:10013D0013FE80E0D2B600000000D2B70000000030
:02014D00C2B737
:01014F00228D
:10015000D2B67E80EE601D00000000D2B720B6054A
:10016000F452078003EE420700000000C2B7EEC35E
:1001700013FE80E0C2B600000000D2B7000000000D
:02018000C2B704
:01018200225A
:1000E8007B007A0079087511057D8E120003E4FF04
:1000F800EFC3940574809480500B74082FF8E604BD
:100108002FF60F80EB7B007A0079087511057D8E3C
:0501180012005B80FEF7
:10018300BB010689828A83E0225002E722BBFE027A
:09019300E32289828A83E49322AD
:10019C00BB010689828A83F0225002F722BBFE0142
:0201AC00F3223C
:00000001FF
