:0300000002010DED
:0C010D00787FE4F6D8FD75814F020154A4
:10028800C100012400014F000B25312D48656C6C1D
:100298006F210D0A000A30322D48656C6C6F210DF4
:1002A8000A0A3A332D48656C6C6F210D0A0B4434E9
:0A02B8002D48656C6C6F210D0A00E3
:10019900D2AF7F807E251202C33000FDC200E52464
:1001A90024FE601A14602214602F240370EB752159
:1001B90000752200752325754F0BD29980DB7521B7
:1001C900007522007523308009752100752200759C
:1001D900233A754F0AD29980C0752100752200759E
:0901E9002344754F0AD29980B03D
:1002C30075985053890F438920AB07AA06E4F9F8C0
:1002D3007F807E70FDFC120244EFF404F58D858D62
:0802E3008BC2ABD2ACD28E221B
:030023000201F2E5
:1001F200C0E0C083C082C0D075D000C001C002C0C0
:1002020003309807C298859924D200309925C29963
:10021200D3E54F9400748094804018AB21AA22A9A0
:1002220023120026F599154F74012523F523E43591
:1002320022F522D003D002D001D0D0D082D083D0F8
:02024200E032A8
:10011900020199E493A3F8E493A34003F68001F262
:1001290008DFF48029E493A3F85407240CC8C333E7
:10013900C4540F4420C8834004F456800146F6DFB6
:10014900E4800B0102040810204080900288E47EBC
:10015900019360BCA3FF543F30E509541FFEE493AB
:10016900A360010ECF54C025E060A840B8E493A372
:10017900FAE493A3F8E493A3C8C582C8CAC583CA9D
:10018900F0A3C8C582C8CAC583CADFE9DEE780BE55
:0102C200003B
:10002600BB010689828A83E0225002E722BBFE02D8
:09003600E32289828A83E493220B
:10024400C2D5E830E70FB2D5E4C39BFBE49AFAE4E5
:1002540099F9E498F8EC30E717B2D512027A120053
:100264007BE4C39BFBE49AFAE499F9E498F88003ED
:1002740012007B30D50DE4C39FFFE49EFEE49DFD98
:04028400E49CFC22D8
:10003F0075F008758200EF2FFFEE33FECD33CDCC78
:10004F0033CCC58233C5829BED9AEC99E5829840FB
:10005F000CF582EE9BFEED9AFDEC99FC0FD5F0D6D8
:10006F00E4CEFBE4CDFAE4CCF9A88222B800C1B902
:10007F000059BA002DEC8BF084CFCECDFCE5F0CB40
:10008F00F97818EF2FFFEE33FEED33FDEC33FCEB79
:10009F0033FB10D703994004EB99FB0FD8E5E4F934
:1000AF00FA227818EF2FFFEE33FEED33FDEC33FC21
:1000BF00C933C910D7059BE99A4007EC9BFCE99A15
:1000CF00F90FD8E0E4C9FAE4CCFB2275F010EF2F5A
:1000DF00FFEE33FEED33FDCC33CCC833C810D7075A
:1000EF009BEC9AE899400AED9BFDEC9AFCE899F895
:0E00FF000FD5F0DAE4CDFBE4CCFAE4C8F92228
:00000001FF
