:03000000020156A4
:0C015600787FE4F6D8FD75811B02019D46
:10000E00C0F9A4B0999282F880908883C6A1868E9A
:10037F00070EFFFFFFFFFFFFFF0115000116000132
:10038F001700010C00010D01010800010901010A0C
:04039F0000010B004E
:10029F00D2AFC294D2937F017E001201E27F807EA3
:1002AF0025120332E50D70057514FF800AE50C6009
:1002BF0006E4F50C1203A4E517540F90000E93F506
:0B02CF000EE517C4540F93F50F80D903
:1003A400E509F4F514E508700EE50925E0F509649E
:1003B40080701075080122E509C313F50964017002
:0303C40002F50837
:0103C7002213
:1001E200751B00751A1075190E751800E4FCFDAB2D
:1001F2001BAA1AA919A818120026E47BE87A03F9A7
:10020200F81200B18F1B8E1A8D198C18C3E4951B3E
:10021200F51BE4951AF51A74019519F519E4951868
:10022200F518E51B240DF51BE4351AF51AE435190A
:10023200F519E43518F518AF1BAE1AAD19FC78089C
:100242001201438F15851B165389F04389018515C9
:080252008C85168AD2A9D28C1A
:01025A002281
:1003320075985053890F438920AB07AA06E4F9F850
:100342007F807E70FDFC12025BEFF404F58D858DDB
:080352008BC2ABD2ACD28E22AB
:10035A007580FFE59054F8450AF590740E250AF861
:10036A00E6F580C3E50A9406748094805003050A72
:04037A0022E4F50A7A
:01037E00225C
:03000B000202DA14
:0902DA00C0E0C0D075D000C000E6
:1002E30085158C85168A12035A050BC3E50B94C832
:0C02F300748094804006750B00750C01AF
:0702FF00D000D0D0D0E032A6
:03002300020306CF
:10030600C0E0C0D075D000C007309814C298859957
:1003160017851799E50D70047F0180027F008F0D08
:0C032600309902C299D007D0D0D0E0324C
:1001620002029FE493A3F8E493A34003F68001F212
:1001720008DFF48029E493A3F85407240CC8C3339E
:10018200C4540F4420C8834004F456800146F6DF6D
:10019200E4800B010204081020408090037FE47E7B
:1001A200019360BCA3FF543F30E509541FFEE49362
:1001B200A360010ECF54C025E060A840B8E493A329
:1001C200FAE493A3F8E493A3C8C582C8CAC583CA54
:1001D200F0A3C8C582C8CAC583CADFE9DEE780BE0C
:0103A3000059
:10002600E88FF0A4CC8BF0A42CFCE98EF0A42CFC79
:100036008AF0EDA42CFCEA8EF0A4CDA8F08BF0A4F7
:100046002DCC3825F0FDE98FF0A42CCD35F0FCEB56
:100056008EF0A4FEA9F0EB8FF0A4CFC5F02ECD391B
:0F006600FEE43CFCEAA42DCE35F0FDE43CFC2288
:1000750075F008758200EF2FFFEE33FECD33CDCC42
:1000850033CCC58233C5829BED9AEC99E5829840C5
:100095000CF582EE9BFEED9AFDEC99FC0FD5F0D6A2
:1000A500E4CEFBE4CDFAE4CCF9A88222B800C1B9CC
:1000B5000059BA002DEC8BF084CFCECDFCE5F0CB0A
:1000C500F97818EF2FFFEE33FEED33FDEC33FCEB43
:1000D50033FB10D703994004EB99FB0FD8E5E4F9FE
:1000E500FA227818EF2FFFEE33FEED33FDEC33FCEB
:1000F500C933C910D7059BE99A4007EC9BFCE99ADF
:10010500F90FD8E0E4C9FAE4CCFB2275F010EF2F23
:10011500FFEE33FEED33FDCC33CCC833C810D70723
:100125009BEC9AE899400AED9BFDEC9AFCE899F85E
:0E0135000FD5F0DAE4CDFBE4CCFAE4C8F922F1
:10025B00C2D5E830E70FB2D5E4C39BFBE49AFAE4CE
:10026B0099F9E498F8EC30E717B2D5120291120025
:10027B00B1E4C39BFBE49AFAE499F9E498F88003A0
:10028B001200B130D50DE4C39FFFE49EFEE49DFD4B
:04029B00E49CFC22C1
:10014300E8600FECC313FCED13FDEE13FEEF13FF9A
:03015300D8F122BE
:00000001FF
