:0300000002029D5C
:0C029D00787FE4F6D8FD75811C0202E4B5
:10033C00C0F9A4B0999282F880908883C6A1868E69
:100329000613FFFFFFFFFFFF011C00021A00000177
:020339001900A9
:10000E00E4F50CF50BF50AF509D2AFC294D293754F
:10001E008901758CFC758A67D2A9D28CE5196401A9
:10002E0070FAF519E50C2401F50CE4350BF50BE42B
:10003E00350AF50AE43509F509E47B0AFAF9F8AF51
:10004E000CAE0BAD0AAC0912017DAF038F0DE47B34
:10005E000AFAF9F8AF0CAE0BAD0AAC0912017DE449
:10006E007B0AFAF9F812017DAF038F0EE47B64FA76
:10007E00F9F8AF0CAE0BAD0AAC0912017DE47B0AA8
:10008E00FAF9F812017DAF038F0FE47BE87A03F9DA
:10009E00F8AF0CAE0BAD0AAC0912017DE47B0AFA87
:1000AE00F9F812017DAF038F10E47B107A27F9F86F
:1000BE00AF0CAE0BAD0AAC0912017DE47B0AFAF966
:1000CE00F812017DAF038F117BA07A86790178003B
:1000DE00AF0CAE0BAD0AAC0912017DE47B0AFAF946
:1000EE00F812017DAF038F12750805AF08EF339537
:1000FE00E0FEC3EF9401EE648094804011740D2FE6
:10010E00F8E6700A74132FF876FF150880DDAF0835
:10011E00EF3395E0C364809480500302002A740D7F
:10012E002FF8E690033C93FF74132508F8A60715E5
:03013E000880DB5B
:03000B0002020FDF
:10020F00C0E0C0D0758CFC758A67051BE51B7002BA
:10021F00051AC394E8E51A94034009751A00751B73
:10022F00007519017580FFE51C14601D14602714FB
:10023F00603114603B1460452405704DC292C29129
:10024F00C290051C8513808040C292C291D2900546
:10025F001C8514808033C292D291C290051C8515E3
:10026F00808026C292D291D290051C85168080196B
:10027F00D292C291C290051C851780800CD292C277
:0E028F0091D290751C00851880D0D0D0E0323E
:1002A90002000EE493A3F8E493A34003F68001F25D
:1002B90008DFF48029E493A3F85407240CC8C33356
:1002C900C4540F4420C8834004F456800146F6DF25
:1002D900E4800B0102040810204080900329E47E89
:1002E900019360BCA3FF543F30E509541FFEE4931A
:1002F900A360010ECF54C025E060A840B8E493A3E1
:10030900FAE493A3F8E493A3C8C582C8CAC583CA0B
:10031900F0A3C8C582C8CAC583CADFE9DEE780BEC3
:01033B0000C1
:1001410075F008758200EF2FFFEE33FECD33CDCC75
:1001510033CCC58233C5829BED9AEC99E5829840F8
:100161000CF582EE9BFEED9AFDEC99FC0FD5F0D6D5
:10017100E4CEFBE4CDFAE4CCF9A88222B800C1B9FF
:100181000059BA002DEC8BF084CFCECDFCE5F0CB3D
:10019100F97818EF2FFFEE33FEED33FDEC33FCEB76
:1001A10033FB10D703994004EB99FB0FD8E5E4F931
:1001B100FA227818EF2FFFEE33FEED33FDEC33FC1E
:1001C100C933C910D7059BE99A4007EC9BFCE99A12
:1001D100F90FD8E0E4C9FAE4CCFB2275F010EF2F57
:1001E100FFEE33FEED33FDCC33CCC833C810D70757
:1001F1009BEC9AE899400AED9BFDEC9AFCE899F892
:0E0201000FD5F0DAE4CDFBE4CCFAE4C8F92224
:00000001FF
