:030000000200708B
:0C007000787FE4F6D8FD75812002007C4A
:0C007C007F5012004D7F6212004D80FE8C
:10005F00D2B6D2B700000000C2B600000000C2B78F
:01006F00226E
:10003800C2B7C2B600000000D2B700000000D2B6B6
:05004800000000002291
:100003007E80EE601B5F7004C2B68002D2B6000031
:100013000000D2B700000000C2B7EEC313FE80E2B7
:10002300D2B600000000D2B7A2B6920100000000D1
:04003300C2B7A201AD
:0100370022A6
:10004D0012005FEF25E0FF1200039200120038A2AC
:01005D0000A2
:01005E00227F
:00000001FF
