:0300000002028F6A
:0C028F00787FE4F6D8FD7581140202D6D9
:10031B00C0F9A4B0999282F880908883C6A1868E8A
:08032B00060FFFFFFFFFFFFFBB
:10000300E4F508F509F50AF50EF50DF50CF50BC247
:1000130094D293758901758CFC758A67D28C308D67
:10002300FDC28D758CFC758A67050AE50A700205A9
:1000330009C394E8E50994035003020145E4F50973
:10004300F50AE50E2401F50EE4350DF50DE4350C46
:10005300F50CE4350BF50BE47B0AFAF9F8AF0EAEB9
:100063000DAD0CAC0B1201FD741B2BF58274033A1E
:10007300F583E493F50FE47B0AFAF9F8AF0EAE0DBE
:10008300AD0CAC0B1201FDE47B0AFAF9F81201FD89
:10009300741B2BF58274033AF583E493F510E47B28
:1000A30064FAF9F8AF0EAE0DAD0CAC0B1201FDE422
:1000B3007B0AFAF9F81201FD741B2BF58274033ADB
:1000C300F583E493F511E47BE87A03F9F8AF0EAE18
:1000D3000DAD0CAC0B1201FDE47B0AFAF9F8120129
:1000E300FD741B2BF58274033AF583E493F512E454
:1000F3007B107A27F9F8AF0EAE0DAD0CAC0B1201E5
:10010300FDE47B0AFAF9F81201FD741B2BF58274E6
:10011300033AF583E493F5137BA07A86790178009B
:10012300AF0EAE0DAD0CAC0B1201FDE47B0AFAF978
:10013300F81201FD741B2BF58274033AF583E493E3
:10014300F514AF087E00EF700EC292C291C2900503
:1001530008850F80020021EF64014E700EC292C227
:1001630091D2900508851080020021EF64024E7041
:100173000EC292D291C2900508851180020021EF30
:1001830064034E700EC292D291D2900508851280FC
:10019300020021EF64044E700ED292C291C2900508
:1001A30008851380020021EF64054E6003020021DD
:0E01B300D292C291D290F508851480020021EC
:10029B00020003E493A3F8E493A34003F68001F276
:1002AB0008DFF48029E493A3F85407240CC8C33364
:1002BB00C4540F4420C8834004F456800146F6DF33
:1002CB00E4800B010204081020408090032BE47E95
:1002DB00019360BCA3FF543F30E509541FFEE49328
:1002EB00A360010ECF54C025E060A840B8E493A3EF
:1002FB00FAE493A3F8E493A3C8C582C8CAC583CA1A
:10030B00F0A3C8C582C8CAC583CADFE9DEE780BED1
:0103330000C9
:1001C10075F008758200EF2FFFEE33FECD33CDCCF5
:1001D10033CCC58233C5829BED9AEC99E582984078
:1001E1000CF582EE9BFEED9AFDEC99FC0FD5F0D655
:1001F100E4CEFBE4CDFAE4CCF9A88222B800C1B97F
:100201000059BA002DEC8BF084CFCECDFCE5F0CBBC
:10021100F97818EF2FFFEE33FEED33FDEC33FCEBF5
:1002210033FB10D703994004EB99FB0FD8E5E4F9B0
:10023100FA227818EF2FFFEE33FEED33FDEC33FC9D
:10024100C933C910D7059BE99A4007EC9BFCE99A91
:10025100F90FD8E0E4C9FAE4CCFB2275F010EF2FD6
:10026100FFEE33FEED33FDCC33CCC833C810D707D6
:100271009BEC9AE899400AED9BFDEC9AFCE899F811
:0E0281000FD5F0DAE4CDFBE4CCFAE4C8F922A4
:00000001FF
