:030000000200ED0E
:0C00ED00787FE4F6D8FD75810A0201342A
:10017900FFFFFFFFFFFFFFFF999999999981C3FF3E
:100189009900000081C3E7FFC3E7E7E7E7E7C3FF9B
:08019900FFFFFFFFFFFFFFFF66
:0901B600010800010900010A1F03
:1001A100D2AFC294C293758901758CFC758A67D2EE
:0501B100A9D28C80FEC4
:03000B0002000EE2
:0D000E00C0E0C083C082C0D075D000C0002B
:10001B00758CFC758A677580FFE508B40800400392
:10002B000200C7900035F828287302004D02005CCF
:10003B0002006B02007A0200890200980200A702FC
:10004B0000B6C292C291C2900508E50A9001798070
:10005B0068C292C291D2900508E50A90017A805944
:10006B00C292D291C2900508E50A90017B804AC2E8
:10007B0092D291D2900508E50A90017C803BD292F6
:10008B00C291C2900508E50A90017D802CD292C2E4
:10009B0091D2900508E50A90017E801DD292D291F3
:1000AB00C2900508E50A90017F800ED292D291D2C0
:1000BB0090750800E50A90018093F5800509C3E56A
:1000CB000994FA74809480400E750900E50A700556
:0700DB00750A1F8002150ADF
:0B00E200D000D0D0D082D083D0E0321C
:1000F9000201A1E493A3F8E493A34003F68001F27B
:1001090008DFF48029E493A3F85407240CC8C33307
:10011900C4540F4420C8834004F456800146F6DFD6
:10012900E4800B01020408102040809001B6E47EAF
:10013900019360BCA3FF543F30E509541FFEE493CB
:10014900A360010ECF54C025E060A840B8E493A392
:10015900FAE493A3F8E493A3C8C582C8CAC583CABD
:10016900F0A3C8C582C8CAC583CADFE9DEE780BE75
:0101BF00003F
:00000001FF
