:03000000020238C1
:0C023800787FE4F6D8FD75813902027F62
:1004B700C0F9A4B0999282F880908883C6A1868EED
:10041800062BFFFFFFFFFFFF043401010101C101AB
:10042800C1800133000238000001310001320004AC
:1004380021010101010425FFFFFFFF012900012A15
:0104480000B3
:10049A00D2AFC294D29375A0FE7F027E001202C42C
:0D04AA00300005C20012019312039A80F386
:1002C400750B00750A1075090E750800E4FCFDAB8A
:1002D4000BAA0AA909A808120063E47BE87A03F9C7
:1002E400F81200EE8F0B8E0A8D098C08C3E4950B6F
:1002F400F50BE4950AF50A74019509F509E49508E6
:10030400F508E50B2412F50BE4350AF50AE4350982
:10031400F509E43508F508AF0BAE0AAD09FC780819
:100324001201808F31850B325389F0438901853165
:080334008C85328AD2A9D28C1B
:01033C00229E
:10019300E53375F00A84E5F09004B793F52BE53366
:1001A30075F00A8493F52CAE38AF397C007D0A12C2
:1001B300000E8D08AE38AF397C007D0A12000E7C2C
:1001C300007D0A12000E8D09AE38AF397C007D64C4
:1001D30012000E7C007D0A12000E8D0AAE38AF3974
:1001E3007C037DE812000E7C007D0A12000E8D0B4D
:1001F3007F03EFFD3395E0FCC3ED9401EC64809441
:1002030080401074082FF8E67009742D2FF876FFDC
:100213001F80DFEF3395E0C364809480401374083C
:100223002FF8E69004B793FE742D2FF8A6061F80CF
:04023300E2532D7FE6
:0102370022A4
:0904D300300103C20122D2012212
:0C04C700C201E4F533F538F539D200220B
:10039A00E4FFEFFD7C00C3940474809480503374AE
:1003AA00342FF8E6FE74212FF8E6FB6E6021EB602D
:1003BA0012ED640170051204C78008EF640270032D
:1003CA001204D374342FF8E6FE74212FF8A6060F10
:0203DA0080C0E1
:0103DC0022FE
:10033D00E52525E0FFA2A4E4334FF525E52625E0CC
:10034D00FFA2A5E4334FF526E52725E0FFA2A6E49D
:10035D00334FF527E52825E0FFA2A7E4334FF52815
:10036D00E4FFEFC3940474809480502074252FF81B
:10037D00E6FD7C00700874342FF8E4F6800BEDF484
:0C038D004C700674342FF876010F80D6F7
:010399002241
:100475007580FFE59054F84529F590742B2529F8EA
:10048500E6F580C3E5299405748094805003052919
:0404950022E4F5293F
:010499002240
:10044A003001270533C3E5339464748094804018DF
:10045A00E4F5330539E539700205389410E5389426
:0B046A00274005E4F538F539D20022E8
:03000B000203DD10
:0F03DD00C0E0C0D075D000C000C004C005C0078C
:1003EC0085318C85328A12047512033D052AC3E5CA
:0F03FC002A9405748094804006752A0012044AE2
:0D040B00D007D005D004D000D0D0D0E03212
:1002440002049AE493A3F8E493A34003F68001F232
:1002540008DFF48029E493A3F85407240CC8C333BB
:10026400C4540F4420C8834004F456800146F6DF8A
:10027400E4800B0102040810204080900418E47EFE
:10028400019360BCA3FF543F30E509541FFEE4937F
:10029400A360010ECF54C025E060A840B8E493A346
:1002A400FAE493A3F8E493A3C8C582C8CAC583CA71
:1002B400F0A3C8C582C8CAC583CADFE9DEE780BE29
:0104490000B2
:10000E00BC000BBE0029EF8DF084FFADF022E4CCD6
:10001E00F875F008EF2FFFEE33FEEC33FCEE9DEC9F
:10002E00984005FCEE9DFE0FD5F0E9E4CEFD22EDE5
:10003E00F8F5F0EE8420D21CFEADF075F008EF2F2F
:10004E00FFED33FD4007985006D5F0F222C398FD20
:05005E000FD5F0EA22BD
:10006300E88FF0A4CC8BF0A42CFCE98EF0A42CFC3C
:100073008AF0EDA42CFCEA8EF0A4CDA8F08BF0A4BA
:100083002DCC3825F0FDE98FF0A42CCD35F0FCEB19
:100093008EF0A4FEA9F0EB8FF0A4CFC5F02ECD39DE
:0F00A300FEE43CFCEAA42DCE35F0FDE43CFC224B
:1000B20075F008758200EF2FFFEE33FECD33CDCC05
:1000C20033CCC58233C5829BED9AEC99E582984088
:1000D2000CF582EE9BFEED9AFDEC99FC0FD5F0D665
:1000E200E4CEFBE4CDFAE4CCF9A88222B800C1B98F
:1000F2000059BA002DEC8BF084CFCECDFCE5F0CBCD
:10010200F97818EF2FFFEE33FEED33FDEC33FCEB05
:1001120033FB10D703994004EB99FB0FD8E5E4F9C0
:10012200FA227818EF2FFFEE33FEED33FDEC33FCAD
:10013200C933C910D7059BE99A4007EC9BFCE99AA1
:10014200F90FD8E0E4C9FAE4CCFB2275F010EF2FE6
:10015200FFEE33FEED33FDCC33CCC833C810D707E6
:100162009BEC9AE899400AED9BFDEC9AFCE899F821
:0E0172000FD5F0DAE4CDFBE4CCFAE4C8F922B4
:10018000E8600FECC313FCED13FDEE13FEEF13FF5D
:03019000D8F12281
:00000001FF
