:030000000201BD3D
:0C01BD00787FE4F6D8FD7581200200D1A7
:1001AC00D2B6D2B700000000C2B600000000C2B741
:0101BC002220
:10019700C2B7C2B600000000D2B700000000D2B656
:0501A700000000002231
:10009B007E80EE601B5F7004C2B68002D2B6000099
:1000AB000000D2B700000000C2B7EEC313FE80E21F
:1000BB00D2B600000000D2B7A2B69200000000003A
:0500CB00C2B7A200B362
:0100D000220D
:10010600D2B67E80EE601D00000000D2B720B60594
:10011600F452078003EE420700000000C2B7EEC3A8
:1001260013FE80E0D2B600000000D2B70000000047
:02013600C2B74E
:0101380022A4
:10013900D2B67E80EE601D00000000D2B720B60561
:10014900F452078003EE420700000000C2B7EEC375
:1001590013FE80E0C2B600000000D2B70000000024
:02016900C2B71B
:01016B002271
:1000D1007B007A0079087511057D90120003E4FF19
:1000E100EFC3940574809480500B74082FF8E604D4
:1000F1002FF60F80EB7B007A0079087511057D9052
:0501010012005B80FE0E
:100003008B0D8A0E890F8D101201AC7FA012009BFD
:10001300400512019780F1AF1012009B1201AC7FD3
:10002300A112009BD3E511940174809480401912AE
:100033000139AB0D050FE50FAA0E7002050E14F979
:10004300EF120185151180DC120106AB0DAA0EA972
:080053000FEF12018502019775
:10005B008B0D8A0E890F8D10AF111511EF603012B9
:10006B0001AC7FA012009B400512019780F1AF10ED
:10007B00051012009BAB0D050FE50FAA0E700205C4
:10008B000E14F912016CFF12009B12019780C9220A
:10016C00BB010689828A83E0225002E722BBFE0291
:09017C00E32289828A83E49322C4
:10018500BB010689828A83F0225002F722BBFE0159
:02019500F32253
:00000001FF
